:020000040000FA
:10000000E80720208D01000091010000930100000D
:1000100000000000000000000000000000000000E0
:10002000000000000000000000000000950100003A
:10003000000000000000000097010000990100008E
:100040009B010000850E00009B0100009B01000049
:100050009B0100009B0100009B0100009B01000030
:10006000000000009B0100009B0100000000000058
:10007000000000009B0100009B01000041260000E1
:100080009B0100009B0100009B0100009B01000000
:100090009B0100009B010000000000000000000028
:1000A0009B0100009B010000000000000000000018
:1000B0009B010000000000009B0100009B0100006C
:1000C00000F002F800F052F812A030C808382418E6
:1000D0002D18AC4201D100F049F80FCCA246AB4636
:1000E0000CA730CF2D1B083F3F197C427F1E544484
:1000F0002D090426F441641EAC4201D300F036F809
:100100000126334200D0FB1A3343984754465D46DC
:10011000DFE70000BC470000DC47000000000000F3
:10012000103A02D378C878C1FAD8520701D330C840
:1001300030C101D504680C60704700000000000069
:100140007047000000000000002300240025002666
:10015000103A01D378C1FBD8520700D330C100D583
:100160000B6070471FB51FBD10B510BD00F0D4FC6B
:100170001146FFF7F7FF02F0D7FC00F0ECFC03B4E8
:10018000FFF7F2FF03BC02F081FB000006480047C6
:10019000FEE7FEE7FEE7FEE7FEE7FEE70348044969
:1001A000024A044B70470000C1000000E80620200E
:1001B000E8072020E8062020002203098B4273D3A1
:1001C000030A8B4258D3030B8B423CD3030C8B4264
:1001D00021D312E003460B437FD4002243088B4215
:1001E00074D303098B425FD3030A8B4244D3030BBE
:1001F0008B4228D3030C8B420DD30902FF2212BA83
:10020000030C8B4202D31212090265D0030B8B42FE
:1002100019D300E0090AC30B8B4201D3CB03C01AE8
:100220005241830B8B4201D38B03C01A5241430BC3
:100230008B4201D34B03C01A5241030B8B4201D3B3
:100240000B03C01A5241C30A8B4201D3CB02C01A1E
:100250005241830A8B4201D38B02C01A5241430A96
:100260008B4201D34B02C01A5241030A8B4201D385
:100270000B02C01A5241CDD2C3098B4201D3CB012C
:10028000C01A524183098B4201D38B01C01A5241DB
:1002900043098B4201D34B01C01A524103098B42DF
:1002A00001D30B01C01A5241C3088B4201D3CB00CA
:1002B000C01A524183088B4201D38B00C01A5241AD
:1002C00043088B4201D34B00C01A5241411A00D25D
:1002D00001465241104670475DE0CA0F00D04942C6
:1002E000031000D3404253409C46002203098B4236
:1002F0002DD3030A8B4212D38901FC2212BA030ABE
:100300008B420CD3890192118B4208D3890192113F
:100310008B4204D389013AD0921100E08909C309C4
:100320008B4201D3CB01C01A524183098B4201D3C6
:100330008B01C01A524143098B4201D34B01C01AB1
:10034000524103098B4201D30B01C01A5241C30829
:100350008B4201D3CB00C01A524183088B4201D398
:100360008B00C01A5241D9D243088B4201D34B00B3
:10037000C01A5241411A00D201465241104663460A
:100380005B1001D34042002B00D5494270476346C1
:100390005B1000D3404201B50449002802DC491C2F
:1003A000084000E00846C046C04602BDFFFFFF7F90
:1003B00070477047704700000246C80FC00781436E
:1003C0004B0030B54B405B009B0D20D01923DB0662
:1003D000C91801231B05994220DB0324A407042527
:1003E0001346AB400BD3002B04D1EB0613409B000C
:1003F000E34204D401246407002312195941FF2366
:100400001B0599420BD2C9000143500F09E0CB02F2
:1004100004D501430803024305D0054830BDFF2140
:10042000C905084330BD084607210905884330BD8A
:100430000000C07FF0B50C46871A9C410D46861A15
:100440009D4103D2C01BA141D21963410D0D1F0D67
:10045000C94EEC1BAE435CD07F057F0D0026002FFC
:1004600051D02D05AC46A943DD020123ED0A1B0541
:100470001D4320231B1B24D41746E7403818714125
:100480002F46E740CC199D402818314661410C0D9C
:1004900027D161449A4013D50023401C5941520092
:1004A0000ED14008400001224B005205D34207D331
:1004B00005204007C14201D5B04900E0B0493046AF
:1004C000F0BD6B00002A00D001229A181F23203CA7
:1004D0001B1B01D5002302E0E540281871410C0DDB
:1004E000D7D0012424050919C407CD0740084908BD
:1004F000E40F28436144002CD5D00024401C614106
:100500009A40D0D1CDE76A05520DD9D1C90FC9079C
:10051000D5E79C4D4E00002801D0012400E00024C6
:1005200034195F00002A01D0012600E00026BE1920
:10053000954FAC420CD8AE420AD8B44206D0012541
:100540006D05EC42BCD010461946F0BD9942FCD076
:1005500000203946F0BDF0B51FB40C460F46811A95
:100560009F412546861A9D4106D20125ED076F4021
:10057000401ABC4152187B41210D1E0D8D1BAC460B
:100580007D4D8D437ED075056D0D7CD00D05AE463D
:10059000AC431B031B0B794D52429D412023664601
:1005A0009B1B14D31746F74038180026009074415F
:1005B00060462F460741E41900989D40281866417F
:1005C00016D4714671189A4025D5012320E093185E
:1005D0002A466A415200002B00D0521C1E23203EA6
:1005E0009B1B002B61DD3541EE1728186641E8D5CD
:1005F000001876415B1C9A4000D3401C4B05F31851
:100600001524E34010D3002B52D071467118D30F3C
:10061000C01802D3491C05B0F0BD0123DB079A4284
:10062000F9D140084000F6E701225205B21801D185
:10063000002853D00123CC0ADB029943891E002AEB
:1006400008D1020C03D0020C0004103902E002466B
:10065000002020390023550B05D112020823550B29
:1006600001D152010D23550C01D112011B1DD50CD6
:1006700001D192009B1C150D01D152005B1C20255D
:10068000EE1A01E02CE022E00546F54015439840C3
:10069000CA1AE10769181305C918002ABBDA032032
:1006A00040070818C10FC9070FE071466118B2E78B
:1006B000F10740080843711071444A000CD001232F
:1006C0005B059A42A7D2C90FC9070020A3E74905D5
:1006D000490D26D1002001E00028F4D100219AE73D
:1006E000284D6600002801D0012100E0002171188A
:1006F0005F00002A01D0012600E00026BE19224F2B
:10070000A94210D8AE420ED8B14208D001256D05DD
:10071000E94206D01946A802414010467BE79C42B8
:1007200001D0214677E70020394674E710B50C4622
:100730005C4005D50124E4076340FFF70CFF10BDC2
:10074000FFF778FE10BD30B40C465C4004D50124A0
:10075000E407634030BC6DE630BCFCE670B50124B4
:10076000E40761400D465D4002D4FFF763FE70BDB3
:100770006340FFF7F0FE70BDFF0700000000F0FFD0
:100780000000F07F0000E0FF0000F87F1F22030C54
:1007900002D10F22000402D0030E03D004E0002097
:1007A000014670470002083A030F01D10001121FF1
:1007B000830F01D18000921E002801DB4000521EF1
:1007C000120551184205C012411810467047C10F5A
:1007D000C90700D04042012292071143D6E7012108
:1007E0008907D3E7F0B58B4C0F09254689B0BD4387
:1007F0007BD01D092646AE43FAD00E465E40274008
:10080000F60F3E43254071D024012142FBD0FF2446
:10081000AD19A4042D1B039501252D05DB02DB0A70
:10082000C9022B43C90A29431E010901040F130FF2
:10083000050121431701880B820391432D098C4642
:10084000A90B1E438A039543B30B9A0396433F09B2
:10085000BA0B9403A74302962E467E430497B646EE
:100860004E19D7190C460196544305977E43371B02
:100870007646BF1B3601B646BE0B36190096764645
:10088000BC043719009C01D3641C00946400002F41
:1008900001D001263443029E049F754366467E4381
:1008A0000496760034196E0034190094029C019E5F
:1008B0001C196643751BAE46069465464519059C92
:1008C00005956C43594375460891691A0191049E38
:1008D00001465143A41B0491611A009C0791E10653
:1008E00005D061090122114302E072E06EE0610966
:1008F000089D00272C0A2D066918049D7C412A0AB0
:100900002D066918019D6241AC0DAD026D18544170
:10091000079A910D920255196141029A6446584313
:100920005443069B059A5A43121A131B9A0E9B01B5
:100930005B187A41010B0005C3185141220A2006B9
:1009400044195A419A4200D2491C01204002814276
:1009500003D315230226F64302E014230326F643AD
:100960002020C51AA9401746AF40DA400A43204666
:100970000399D8400914731819055118039A38437C
:10098000D2075140AC4009D00122944006D3002246
:10099000401C5141002C01D1400840001E4A9342A6
:1009A00012D3012203989206904207DB05204007EC
:1009B00009181A480143C012414004E003204007CF
:1009C0000818C10FC907002009B0F0BD0020F107C9
:1009D000FAE705180C464C4111486D42A04115D369
:1009E00094181A465A410E48644290410ED3012091
:1009F0004A004005824209D35A00824206D3594038
:100A0000C90F084AC90700201143DDE70020064945
:100A1000DAE700000000FF07FE070000FFFFFF7F8E
:100A20000000E0FF0000F07F0000F87F10B50146F5
:100A30009E240002CA15A307002A02D01843002AE8
:100A400004DBA21A002A0CDDD04010BD1206120EE3
:100A500001D140004008A21A03D4D04040420028EF
:100A6000F3DDFF2248001206904201D9002010BD9C
:100A7000C817C043584010BDF8B5264C4E00069D1F
:100A8000A6420AD8A64201D1002806D15E00A6429D
:100A900003D8A6420AD1002A08D00D2424042542F6
:100AA00033D02946002000F05EF8F8BD0C461C4308
:100AB00011D4994207D0C81A02D3EFF30080F8BDD1
:100AC000EFF30080F8BD801A02D3EFF30080F8BD89
:100AD000EFF30080F8BD09242407E5008B4207D01E
:100AE000581A02D3EFF3008006E0EFF3008007E02E
:100AF000101A03D3EFF30080A04303E0EFF300806C
:100B0000A043284380F30088F8BD009500F042F828
:100B1000F8BD00000000E0FF754600F045F8AE4665
:100B2000050069465346C008C000854618B020B588
:100B3000FFF734FB60BCB64600260027C0C5C0C521
:100B4000C0C5C0C5C0C5C0C5C0C5C0C5403D4908B9
:100B500049008D46704710B50446C046C046204641
:100B6000FFF70DFB10BDC80212D54803400F002847
:100B700004D0C803C043012188407047EFF30080D0
:100B80000001000903210907084380F3008870472A
:100B90000020704710B500200249029A00F008F8C2
:100BA00010BD00000000F87F0048704708002020BA
:100BB00010B50C461107090F092904D00A290AD0DB
:100BC00008290CD104E011460820FFF7CCFF06E00D
:100BD000510606D501E0510601D50120C007214686
:100BE00010BDD10607D501010909CC084907000E3F
:100BF0000006044309E0410F20024907000A0143AF
:100C0000200E00061D22D14101430846E7E7811E60
:100C1000091F00BFFCD27047F0B5684A8218294B03
:100C2000C318087920280DD000281DD10C68641E37
:100C30005460D56E244C25408835D56616467036EE
:100C400088251DE00C68641E5460D46E1E4D2C4037
:100C50001E4EA419D466146F2C40A41914670124E5
:100C600065071B4C16460BE00C6864085460D66E92
:100C7000154C26400525ED017619D66616467036C8
:100C8000376827402F433760D46A4E4D2C40D462DA
:100C9000146B2C4014630024D46414658F24E44343
:100CA000D56F2540D5671D6825401D6049790143F2
:100CB000BD2008401168074B0B40C018801C106015
:100CC000F0BDC0468418000024493E000104000025
:100CD000FFFFFFCF4000FFCFB0B54A68364BC25090
:100CE000364A80180A78222A58D8930001A4E3587B
:100CF0009F46C046930D00009D0D0000930D00001F
:100D00009D0D00009D0D00009D0D00009D0D00003B
:100D10009D0D00009D0D00009D0D00009D0D00002B
:100D20009D0D00009D0D00009D0D00009D0D00001B
:100D30009D0D0000810D00009D0D0000810D000043
:100D40009D0D00009D0D00009D0D00009D0D0000FB
:100D50009D0D00009D0D00009D0D00009D0D0000EB
:100D60009D0D00009D0D00009D0D00009D0D0000DB
:100D70009D0D0000810D00009D0D0000810D000003
:100D800003231B0704689C4301235B07E3180360EC
:100D900004E003231B0704689C4304600B69C360E1
:100DA000CB68074C1C40C36A064D1D402B19C3621B
:100DB000097A11430160B0BD081800000418000052
:100DC000777702008888FDFF10B507239B04194040
:100DD00092008018024A84589C436118815010BDCB
:100DE0003018000010B5029CA400001911431943EB
:100DF000014A815010BDC046501800009200801872
:100E0000014A81507047C0461018000010B50122F9
:100E1000120383180C789C604B7883508978014AC0
:100E2000815010BD0C110000B0B511221202835880
:100E30000124A34383500B888C781C438B88234365
:100E4000094C1C408358094D1D40631983508B7910
:100E5000CC791C43097A21437E23194080184268CB
:100E60009A4351184160B0BD18670000E798FDFF34
:100E700010B50122120383180C789C6049788150C8
:100E800010BD000080B50848006802280AD1074854
:100E90000168890206D4006801F0AAFB04480168D1
:100EA000491C016080BDC0463011404080330A407B
:100EB00068002020B0B502480346F833802401E0E2
:100EC0006E002020002119701A46083A11701A4647
:100ED000103A11701A46183A11701A46203A1170D9
:100EE0001A46283A11701A46303A11701A46383AA2
:100EF00011701A46403A11701A46483A11701A4653
:100F0000503A11701A46583A11701A46603A1170E8
:100F10001A46683A11701A46703A11701A46783AB1
:100F200011701A46803A11701A46883A11701A46A2
:100F3000903A11701A46983A11701A46A03A1170F8
:100F40001A46A83A11701A46B03A11701A46B83AC1
:100F500011701A46C03A11701A46C83A11701A46F2
:100F6000D03A11701A46D83A11701A46E03A117008
:100F70001A46E83A11701A46F03A11701A46F83AD1
:100F80001170012212029B18203C9BD10446F934B7
:100F9000802321702546083D29702546103D297083
:100FA0002546183D29702546203D29702546283DB7
:100FB00029702546303D29702546383D2970254643
:100FC000403D29702546483D29702546503D2970F1
:100FD0002546583D29702546603D29702546683DC7
:100FE00029702546703D29702546783D2970254693
:100FF000803D29702546883D29702546903D297001
:101000002546983D29702546A03D29702546A83DD6
:1010100029702546B03D29702546B83D29702546E2
:10102000C03D29702546C83D29702546D03D297010
:101030002546D83D29702546E03D29702546E83DE6
:1010400029702546F03D2970A518F83C2170203BF9
:101050002C469ED10446FA34802321702546083D53
:1010600029702546103D29702546183D29702546D2
:10107000203D29702546283D29702546303D2970A0
:101080002546383D29702546403D29702546483D76
:1010900029702546503D29702546583D2970254622
:1010A000603D29702546683D29702546703D2970B0
:1010B0002546783D29702546803D29702546883D86
:1010C00029702546903D29702546983D2970254672
:1010D000A03D29702546A83D29702546B03D2970C0
:1010E0002546B83D29702546C03D29702546C83D96
:1010F00029702546D03D29702546D83D29702546C2
:10110000E03D29702546E83D29702546F03D2970CF
:10111000A518F83C2170203B2C469ED10446FB3498
:10112000802321702546083D29702546103D2970F1
:101130002546183D29702546203D29702546283D25
:1011400029702546303D29702546383D29702546B1
:10115000403D29702546483D29702546503D29705F
:101160002546583D29702546603D29702546683D35
:1011700029702546703D29702546783D2970254601
:10118000803D29702546883D29702546903D29706F
:101190002546983D29702546A03D29702546A83D45
:1011A00029702546B03D29702546B83D2970254651
:1011B000C03D29702546C83D29702546D03D29707F
:1011C0002546D83D29702546E03D29702546E83D55
:1011D00029702546F03D2970A518F83C2170203B68
:1011E0002C469ED10446FC34802321702546083DC0
:1011F00029702546103D29702546183D2970254641
:10120000203D29702546283D29702546303D29700E
:101210002546383D29702546403D29702546483DE4
:1012200029702546503D29702546583D2970254690
:10123000603D29702546683D29702546703D29701E
:101240002546783D29702546803D29702546883DF4
:1012500029702546903D29702546983D29702546E0
:10126000A03D29702546A83D29702546B03D29702E
:101270002546B83D29702546C03D29702546C83D04
:1012800029702546D03D29702546D83D2970254630
:10129000E03D29702546E83D29702546F03D29703E
:1012A000A518F83C2170203B2C469ED10446FD3405
:1012B000802321702546083D29702546103D297060
:1012C0002546183D29702546203D29702546283D94
:1012D00029702546303D29702546383D2970254620
:1012E000403D29702546483D29702546503D2970CE
:1012F0002546583D29702546603D29702546683DA4
:1013000029702546703D29702546783D297025466F
:10131000803D29702546883D29702546903D2970DD
:101320002546983D29702546A03D29702546A83DB3
:1013300029702546B03D29702546B83D29702546BF
:10134000C03D29702546C83D29702546D03D2970ED
:101350002546D83D29702546E03D29702546E83DC3
:1013600029702546F03D2970A518F83C2170203BD6
:101370002C469ED10446FE34802321702546083D2C
:1013800029702546103D29702546183D29702546AF
:10139000203D29702546283D29702546303D29707D
:1013A0002546383D29702546403D29702546483D53
:1013B00029702546503D29702546583D29702546FF
:1013C000603D29702546683D29702546703D29708D
:1013D0002546783D29702546803D29702546883D63
:1013E00029702546903D29702546983D297025464F
:1013F000A03D29702546A83D29702546B03D29709D
:101400002546B83D29702546C03D29702546C83D72
:1014100029702546D03D29702546D83D297025469E
:10142000E03D29702546E83D29702546F03D2970AC
:10143000A518F83C2170203B2C469ED1FF3080231C
:1014400001700446083C21700446103C217004469B
:10145000183C21700446203C21700446283C217031
:101460000446303C21700446383C21700446403C20
:1014700021700446483C21700446503C21700446CB
:10148000583C21700446603C21700446683C217041
:101490000446703C21700446783C21700446803C30
:1014A00021700446883C21700446903C217004461B
:1014B000983C21700446A03C21700446A83C217051
:1014C0000446B03C21700446B83C21700446C03C40
:1014D00021700446C83C21700446D03C217004466B
:1014E000D83C21700446E03C21700446E83C217061
:1014F0000446F03C21708418F8380170203B2046E7
:101500009ED100F09FFBB0BDF0B581B0AE200024AD
:10151000214600F0D3FD2046214600F0CFFD1020EB
:10152000214600F0CBFD40273846214600F0C6FD9D
:101530008120214600F0C2FDCF20214600F0BEFDF3
:10154000A120214600F0BAFDC820214600F0B6FDDA
:10155000A6263046214600F0B1FDA820214600F025
:10156000ADFD3F20214600F0A9FDD320214600F02B
:10157000A5FD2046214600F0A1FDD520214600F022
:101580009DFD80252846214600F098FDD920214662
:1015900000F094FDF120214600F090FDDA20214674
:1015A00000F08CFD1220214600F088FDDB20214652
:1015B00000F084FD3846214600F080FD20202146C1
:1015C00000F07CFD0220214600F078FD8D202146B0
:1015D00000F074FD1420214600F070FDA420214687
:1015E00000F06CFD3046214600F068FD01480246DF
:1015F000F83201E06E0020201470114608390C709A
:10160000114610390C70114618390C7011462039EA
:101610000C70114628390C70114630390C70114687
:1016200038390C70114640390C70114648390C702D
:10163000114650390C70114658390C7011466039FA
:101640000C70114668390C70114670390C701146D7
:1016500078390C70114680390C70114688390C703D
:10166000114690390C70114698390C701146A0390A
:101670000C701146A8390C701146B0390C70114627
:10168000B8390C701146C0390C701146C8390C704D
:101690001146D0390C701146D8390C701146E0391A
:1016A0000C701146E8390C701146F0390C70114677
:1016B000F8390C70012109025218203D9CD10346D3
:1016C000F93380221C701D46083D2C701D46103DCC
:1016D0002C701D46183D2C701D46203D2C701D465B
:1016E000283D2C701D46303D2C701D46383D2C7019
:1016F0001D46403D2C701D46483D2C701D46503DFA
:101700002C701D46583D2C701D46603D2C701D46AA
:10171000683D2C701D46703D2C701D46783D2C7028
:101720001D46803D2C701D46883D2C701D46903D09
:101730002C701D46983D2C701D46A03D2C701D46FA
:10174000A83D2C701D46B03D2C701D46B83D2C7038
:101750001D46C03D2C701D46C83D2C701D46D03D19
:101760002C701D46D83D2C701D46E03D2C701D464A
:10177000E83D2C701D46F03D2C705D18F83B1C7048
:10178000203A2B469ED10346FA3380221C701D4618
:10179000083D2C701D46103D2C701D46183D2C70C8
:1017A0001D46203D2C701D46283D2C701D46303DA9
:1017B0002C701D46383D2C701D46403D2C701D463A
:1017C000483D2C701D46503D2C701D46583D2C70D8
:1017D0001D46603D2C701D46683D2C701D46703DB9
:1017E0002C701D46783D2C701D46803D2C701D468A
:1017F000883D2C701D46903D2C701D46983D2C70E8
:101800001D46A03D2C701D46A83D2C701D46B03DC8
:101810002C701D46B83D2C701D46C03D2C701D46D9
:10182000C83D2C701D46D03D2C701D46D83D2C70F7
:101830001D46E03D2C701D46E83D2C701D46F03DD8
:101840002C705D18F83B1C70203A2B469ED1034645
:10185000FB3380221C701D46083D2C701D46103D38
:101860002C701D46183D2C701D46203D2C701D46C9
:10187000283D2C701D46303D2C701D46383D2C7087
:101880001D46403D2C701D46483D2C701D46503D68
:101890002C701D46583D2C701D46603D2C701D4619
:1018A000683D2C701D46703D2C701D46783D2C7097
:1018B0001D46803D2C701D46883D2C701D46903D78
:1018C0002C701D46983D2C701D46A03D2C701D4669
:1018D000A83D2C701D46B03D2C701D46B83D2C70A7
:1018E0001D46C03D2C701D46C83D2C701D46D03D88
:1018F0002C701D46D83D2C701D46E03D2C701D46B9
:10190000E83D2C701D46F03D2C705D18F83B1C70B6
:10191000203A2B469ED10346FC3380221C701D4684
:10192000083D2C701D46103D2C701D46183D2C7036
:101930001D46203D2C701D46283D2C701D46303D17
:101940002C701D46383D2C701D46403D2C701D46A8
:10195000483D2C701D46503D2C701D46583D2C7046
:101960001D46603D2C701D46683D2C701D46703D27
:101970002C701D46783D2C701D46803D2C701D46F8
:10198000883D2C701D46903D2C701D46983D2C7056
:101990001D46A03D2C701D46A83D2C701D46B03D37
:1019A0002C701D46B83D2C701D46C03D2C701D4648
:1019B000C83D2C701D46D03D2C701D46D83D2C7066
:1019C0001D46E03D2C701D46E83D2C701D46F03D47
:1019D0002C705D18F83B1C70203A2B469ED10346B4
:1019E000FD3380221C701D46083D2C701D46103DA5
:1019F0002C701D46183D2C701D46203D2C701D4638
:101A0000283D2C701D46303D2C701D46383D2C70F5
:101A10001D46403D2C701D46483D2C701D46503DD6
:101A20002C701D46583D2C701D46603D2C701D4687
:101A3000683D2C701D46703D2C701D46783D2C7005
:101A40001D46803D2C701D46883D2C701D46903DE6
:101A50002C701D46983D2C701D46A03D2C701D46D7
:101A6000A83D2C701D46B03D2C701D46B83D2C7015
:101A70001D46C03D2C701D46C83D2C701D46D03DF6
:101A80002C701D46D83D2C701D46E03D2C701D4627
:101A9000E83D2C701D46F03D2C705D18F83B1C7025
:101AA000203A2B469ED10346FE3380221C701D46F1
:101AB000083D2C701D46103D2C701D46183D2C70A5
:101AC0001D46203D2C701D46283D2C701D46303D86
:101AD0002C701D46383D2C701D46403D2C701D4617
:101AE000483D2C701D46503D2C701D46583D2C70B5
:101AF0001D46603D2C701D46683D2C701D46703D96
:101B00002C701D46783D2C701D46803D2C701D4666
:101B1000883D2C701D46903D2C701D46983D2C70C4
:101B20001D46A03D2C701D46A83D2C701D46B03DA5
:101B30002C701D46B83D2C701D46C03D2C701D46B6
:101B4000C83D2C701D46D03D2C701D46D83D2C70D4
:101B50001D46E03D2C701D46E83D2C701D46F03DB5
:101B60002C705D18F83B1C70203A2B469ED1FF303C
:101B7000802204700346083B1C700346103B1C7017
:101B80000346183B1C700346203B1C700346283B51
:101B90001C700346303B1C700346383B1C700346E8
:101BA000403B1C700346483B1C700346503B1C7076
:101BB0000346583B1C700346603B1C700346683B61
:101BC0001C700346703B1C700346783B1C70034638
:101BD000803B1C700346883B1C700346903B1C7086
:101BE0000346983B1C700346A03B1C700346A83B71
:101BF0001C700346B03B1C700346B83B1C70034688
:101C0000C03B1C700346C83B1C700346D03B1C7095
:101C10000346D83B1C700346E03B1C700346E83B80
:101C20001C700346F03B1C704318F8380470203ACF
:101C300018469ED100F006F8AF20002100F03EFAD1
:101C400001B0F0BDF0B585B00021EA4FB02002919F
:101C50000843C0B20024214600F030FA2046214655
:101C600000F02CFA1020214600F028FA0225324814
:101C70000560012606600A24204600F07DFE2E48FD
:101C80000561204600F078FE2B480661204600F0F2
:101C900073FE782000F028FC27480560204600F0FD
:101CA0006BFE25480660204600F066FE224806616D
:101CB000204600F061FE402000F016FC04951E480E
:101CC0000560204600F058FE1B4806600546204689
:101CD00000F052FE03962E61204600F04DFE802655
:101CE0000197387800F000FC1349049808600A2432
:101CF000204600F041FE039D0F480560204600F09D
:101D00003BFE0D480561204600F036FE761E083782
:101D1000002EE6D1084C049D2561039820600A201E
:101D200000F02AFE2560019F7F1C0299491C0829AA
:101D30008CD105B0F0BDC04690120A40F0B58CB011
:101D40000B910490082B01D1062409E05907D8080B
:101D5000002900D0401C5C084443200600D13EE12D
:101D600011980990203AD1B22420009148439D490E
:101D70000918580802900020E2B20192049D04461E
:101D8000039307E00899491C641CE0B2019A904251
:101D900000D324E1082B0891079404D10621009A6E
:101DA0005143934A0FE0182B00D116E1102B07D0B6
:101DB0000C2B00D013E10C21009A51438B4A02E016
:101DC00000990901884A51180818059007200B9AB4
:101DD00011460A900140012426468E400695E9B23C
:101DE000C90084484718D1B2CD087A5D1346334301
:101DF000B24309990029194600D01146099E002EC8
:101E000000D01A4600230598C3561E46DB0700D0B3
:101E1000114679550B98411CCAB20A9801402346D5
:101E20008B40D5087A5D114619439A4309980028DA
:101E30000B4600D092E0002800D093E0B10700D517
:101E400013467B550B99891CCAB20A9B194023463D
:101E50008B40D5087A5D114619439A4300280B46FA
:101E600000D084E0002800D085E0710700D513463B
:101E70007B550B99C91CCAB20A9B194023468B405B
:101E8000D5087A5D114619439A4300280B4677D14D
:101E9000002878D1310700D513467B550B99091DD1
:101EA000CAB20A9B194023468B40D5087A5D114679
:101EB00019439A4300280B4669D100286AD1F106DC
:101EC00000D513467B550B99491DCAB20A9B194090
:101ED00023468B40D5087A5D114619439A43002862
:101EE0000B465BD100285CD1B10600D513467B556B
:101EF0000B99891DCAB20A9B194023468B40D5080D
:101F00007A5D114619439A4300280B464DD10028AB
:101F10004ED1710600D513467B550B98C11D0A980A
:101F200008408440C8B2C0083A5C1146A14314433B
:101F3000099A002A0A4600D02246099B002B069BDC
:101F400000D00C46002E00D422463A54581C039B65
:101F5000082B31D105460899079C14E71346002841
:101F600000D16BE70A46B10700D569E769E7134678
:101F7000002800D179E70A46710700D577E777E7AF
:101F80001346002886D00A46310785D485E71346D4
:101F9000002894D00A46F10693D493E7134600280C
:101FA000A2D00A46B106A1D4A1E713460028B0D0BA
:101FB0000A467106AFD4AFE7C1B2049A891A029AF1
:101FC0009142079C02D10B9A08320B92029A9142DD
:101FD000049D00D1D6E60546D4E60591F6E60CB0A0
:101FE000F0BDC046303B000040350000CC30000062
:101FF000A42E00006E002020F0B589B00790089351
:10200000002B56D015460C460E984108069008281D
:1020100000D1891C05910F9804900899481E891ECB
:1020200001910026C0B20390234F029418E00121D1
:10203000284600F0BFFD0A21FEF7BEF80498009084
:1020400030220A430598704307994018C0B22146D0
:10205000069BFFF773FE761CF0B20899884228D2DF
:10206000F0B203998842E2D02C46F0430899401818
:102070000199891BC9B2032901D2012108E0FC2280
:1020800002400023012179431B1DDDB29542FAD1A4
:10209000032210402546029CCAD0012801D10A2003
:1020A00005E0022802D07D20C00000E0642041430A
:1020B000BEE709B0F0BDC04610270000F0B583B000
:1020C00001910290244F02263E6001253D600A24C2
:1020D000204600F051FC3E61204600F04DFC3D6181
:1020E000204600F049FC782000F0FEF93E602046D2
:1020F00000F042FC3D60204600F03EFC3D61204681
:1021000000F03AFC0199481E8141880100F0ECF989
:102110003E60204600F030FC3D60204600F02CFC84
:102120003D61204600F028FC029800F0DDF93E6099
:10213000204600F021FC3D60204600F01DFC3D6182
:10214000204600F019FC3E613D60204600F014FC82
:102150003E6003B0F0BDC04690120A4070B5274AF9
:10216000842010600120030325490B608523536000
:1021700043030B60234B9C1C14635D1C224CA56124
:102180008226A66065612664E564204DD5635364AC
:102190009364812595601561D5605561A36463637F
:1021A000E36123626362A3629361256065600A460E
:1021B000303A03231C0414600A46403A144C14605D
:1021C000144A0A6005218903134A14680C431460F9
:1021D000D901124A136A0B43136213680B4313604D
:1021E00081020F4A13680B43136040050D490A6AC8
:1021F00002430A620A6802430A6070BD8880424056
:10220000D0120A4081000400048042408100050091
:1022100003C0000003C0030090130A4028100A40C6
:10222000A0330A4028300A4070B582B0194C1A49D0
:102230002046FEF7EBFD19492046FEF7EDFC002590
:102240000095204629462A462B46FEF7CBFD204620
:1022500029462A46FEF7B8FD204629462A46FEF7BB
:10226000CDFD01260096204629462A462B46FEF73C
:10227000B9FD204629463246FEF7A6FD20462946EE
:102280003246FEF7BBFD064886600321016002B0BE
:1022900070BDC046004008408C48000090480000D7
:1022A0000051084080B50A480A49FEF7AFFD0A48C8
:1022B0000A49C1620022C267094B036001630949F0
:1022C0000A6003600849416008480121016080BD3F
:1022D000000009409848000004180940010002006D
:1022E0001292001084180940FFFF000008110940F5
:1022F0000C48002101600320C1430B480246083A04
:1023000013680B40136001680122914301601102C0
:1023100003688B4303601103001F02680A430260D5
:102320007047C04608030B4008010B4005480421D4
:1023300001601F21416000218160016805220A437C
:102340000260704710E000E010B5084C08492046D4
:10235000FEF75CFD07492046FEF7BEFC0648016813
:102360000122114301600548026010BD00808640D3
:102370009B480000A04800002890864008918640B5
:1023800010B5124C12492046FEF772FD1149204645
:10239000FEF74AFD0321CA030F4803689343036015
:1023A0000269284B13401A33036142690A433C21F6
:1023B0008A4342614168012211404368934359189E
:1023C000416001681143016010BDC046000010402B
:1023D000B4480000B64800000011104010B5154C7C
:1023E00015492046FEF744FD14492046FEF71CFD22
:1023F0000320C103124802688A4302600169114A3E
:102400000A40D0320261416915220A432A218A43D7
:102410004261426801210A4043688B439A18426036
:1024200041221201084B1C6814431C6002680A43D5
:10243000026010BD00801040C0480000C24800008B
:10244000009110400000FFFF2890104080B500F080
:102450001BF8FFF783FEFFF74BFFFFF7E5FEFFF7E3
:1024600021FFFFF771FFFFF7B9FFFFF789FFFFF7C4
:102470005DFF7420024900220A5402490A5480BDBB
:10248000A40520202C052020F0B581B00D480E4970
:1024900041600E4A51600E4B59600E4C61600E4D0A
:1024A00069600E4E71600E4F79600E4901601160D7
:1024B000196021602960316039601020FEF7A7FBA8
:1024C00001B0F0BD00080A40030000B100280A4036
:1024D00000480840000809400088864000881040F5
:1024E0000008104001000026F0B583B0029040B211
:1024F0003E4E374610370028384600DA3046022173
:10250000019101600A25284600F036FA0124346062
:10251000284600F031FA346102984006384600D56A
:10252000304601990160284600F026FA34602846BA
:1025300000F022FA346102988006384600D5304611
:1025400001990160284600F017FA3460284600F02F
:1025500013FA34610298C006384600D53046019916
:102560000160284600F008FA3460284600F004FABA
:10257000346102980007384600D530460199016061
:10258000284600F0F9F93460284600F0F5F9346186
:1025900002984007384600D5304601990160284628
:1025A00000F0EAF93460284600F0E6F93461029858
:1025B0008007384600D5304601990160284600F072
:1025C000DBF93460284600F0D7F934610298C0077F
:1025D00000D0374601983860284600F0CDF93460C5
:1025E000284600F0C9F9346103B0F0BD90120A40EA
:1025F00080B50F4801680907C90F0E4A11600168CC
:10260000C906C90F0C4A116001688906C90F9C4AA6
:10261000116000684006C00F9A49086007480068CA
:10262000012802D100F0CAF980BD00F0BBFA80BDDC
:1026300080130A40180520201405202004002020C3
:10264000F0B587B07B4A11787B480068C0B2022998
:1026500013D0012908D0002900D0E5E0552800D08A
:10266000E2E001201070DFE0532800D09EE07348C4
:102670000021017002201070D6E0704A1378704972
:10268000C854581C1070C0B2092800D0CCE00A7899
:1026900006926C4802704F786B48077088780590F6
:1026A0006A4A1070CA786A4B1A700879694B1870B8
:1026B0004E79694B1E708B79684C2370CC79684DCC
:1026C0002C70097A674D29700397069DED19059FB7
:1026D000ED19AD182D180496AD19EB181B19583BC0
:1026E000DBB28B4265D102901102C819FEF76FF878
:1026F0005D4A5E4BFEF776F807460D4600265C4BBA
:10270000324600F052FB04465A4B3846294605969D
:102710003246FEF70BF8002C00D13846002C00D1D1
:102720002946FDF749FE54490860039800020699BE
:102730004018FEF74CF84C4A4C4BFEF753F807464E
:102740000D46059E32464A4B00F02FFB04463846A4
:1027500029463246474BFDF7E9FF002C00D13846A9
:10276000002C00D12946FDF727FE44490860049853
:10277000000202994018FEF72AF804460D463A4A2C
:102780003A4BFEF72FF807460E46059A384B00F0F5
:1027900017FB002810D1344A344B20462946FEF757
:1027A00021F80022334BFDF7C1FF07E00020107035
:1027B0003AE0ED48006805E038463146FDF7FCFD9B
:1027C000E9490860FEF732F902460125082700971B
:1027D000019500241426204621463346FFF70CFCC1
:1027E000E2480068FEF722F902460097019520466C
:1027F00039463346FFF700FCC848026810200090B5
:102800000195204631462B46FFF7F6FBC248026889
:10281000182000900195242120462B46FFF7ECFB61
:10282000FFF710FA0348047017480521016007B04C
:10283000F0BDC04602052020249110402A0520202A
:102840001C0620200105202000052020F90420205E
:10285000F804202011052020100520200905202043
:102860000805202003052020BA490C022B87763F5B
:1028700000806640008076C0F4042020FC04202004
:102880001C05202020052020481010407047000023
:10289000B0B5441A00F07CF91F4908880C801F4A23
:1028A0001188091909B21E4B994200DB19461D4BCC
:1028B000994200DC1946118000221B4B9B5E25B219
:1028C0005D431A4B9B5E4B435919194B9A5E201A74
:1028D00000B2504308180A24214600F08DF9014641
:1028E00019204301581A00B27D221201904200DBE8
:1028F00010460A2800DC2046C91809B2914204DAC1
:102900000A2905DD00F034F9B0BD11460A29F9DCC9
:10291000214600F02DF9B0BD2805202024052020F7
:102920008813000078ECFFFF0200202026052020FD
:1029300000002020B0B57D21090241431E480368F4
:10294000262206E0E41A051F2D686419A2188A429F
:1029500010D21C460368A34208D10368A34205D1E4
:102960000368A34202D10368A342F3D09C42E9D991
:10297000E41AEBE7B0BDC046B0B50F490B684001A3
:10298000262206E0E41A0D1F2D686419A21882425F
:1029900010D21C460B68A34208D10B68A34205D194
:1029A0000B68A34202D10B68A342F3D09C42E9D941
:1029B000E41AEBE7B0BDC04618E000E0F0B587B020
:1029C0005148C82101805148049101805048056850
:1029D0005048006807462F437942794105914E4996
:1029E0000E68744274414D490A6853425341414252
:1029F00006904141684268411743374302D100F0D5
:102A0000D1F84FE0039102930194521E5342534177
:102A1000721E5642564132461A4002400698401EE7
:102A2000474247413A4207D03D4932200880AF2112
:102A300049003C4A118033E0691E48424841039CEA
:102A4000044021461940314205D03648FA21018020
:102A5000334A962023E01A4607403946029B194024
:102A6000314207D02F4882210180AF2040005038EA
:102A70002B4A14E017400198074206D0294832211A
:102A80000180AF204000264A09E01546059A2A40F9
:102A9000324226D02348DC210180214AB420108014
:102AA00000F066F81A480068012818D11948006833
:102AB000012814D119480068012810D1164800686F
:102AC00001280CD129480068FDF7B0FF04462648CC
:102AD0000068FDF7ABFF01462046FFF7D9FE07B0BF
:102AE000F0BD1C40344206D00E48049901800C48C9
:102AF00001800846D4E70142D4D00A48B4210180BD
:102B0000074ADC20CBE7C046F0042020EE0420205A
:102B10001405202018052020200520201C05202039
:102B20006C002020FA042020FFF790FC0120C10354
:102B30000B4A11600B4B19604003106018600220B3
:102B400018607D20C000FFF7F5FE074800680749C0
:102B50000860FEF7D9FCFEF7ADF9FFF749FDFCE789
:102B600080E200E000E100E00C05202004052020C8
:102B7000B0B50C460146054D01222846FEF73EF948
:102B8000002228462146FEF739F9B0BD0040084032
:102B900003200104024A1161800310607047C0469F
:102BA00090120A400F208003014908607047C04618
:102BB000A0120A4043088B421AD3002203098B4219
:102BC00079D3030A8B425ED3030B8B4242D3030CAF
:102BD0008B4227D30902FF2212BA030C8B4202D385
:102BE0001212090203D0030B8B4233D31AE0D3E055
:102BF000411A8041401C704703460B4371D443087F
:102C00008B42F5D3002203098B4254D3030A8B4233
:102C100039D3030B8B421DD3030C8B4202D3944652
:102C20006EE0090AC30B8B4201D3CB03C01A524199
:102C3000830B8B4201D38B03C01A5241430B8B424F
:102C400001D34B03C01A5241030B8B4201D30B0338
:102C5000C01A5241C30A8B4201D3CB02C01A52415F
:102C6000830A8B4201D38B02C01A5241430A8B4222
:102C700001D34B02C01A5241030A8B4201D30B020B
:102C8000C01A5241CDD2C3098B4201D3CB01C01A25
:102C9000524183098B4201D38B01C01A524143092F
:102CA0008B4201D34B01C01A524103098B4201D31D
:102CB0000B01C01A5241C3088B4201D3CB00C01A8A
:102CC000524183088B4201D38B00C01A5241430802
:102CD0008B4201D34B00C01A5241411A524110009D
:102CE0007047CA0F00D04942031000D340425340FE
:102CF00000229C4603098B422DD3030A8B4212D338
:102D00008901FC2212BA030A8B420CD38901921169
:102D10008B4208D3890192118B4204D3890137D0A9
:102D2000921100E08909C3098B4201D3CB01C01A7B
:102D3000524183098B4201D38B01C01A524143098E
:102D40008B4201D34B01C01A524103098B4201D37C
:102D50000B01C01A5241C3088B4201D3CB00C01AE9
:102D6000524183088B4201D38B00C01A5241D9D201
:102D700043088B4201D34B00C01A5241411A00D282
:102D800001465241104663465B1000D340427047F3
:102D900063465B1000D3404201B50021004201D0E0
:102DA000C9430846C046C04602BD10B500F016F83B
:102DB000EFF300804000800F012800D0002010BDFC
:102DC00010B500F03DF8EFF300804000800F0128BF
:102DD00001D0012010BD002010BD000070B50125FC
:102DE0002D050C001C4310D4EC4206D4AC420AD48E
:102DF000994200D070BD904270BDE94217D4EB42B9
:102E000015D4994270BD894270BDEC4206D5AC42E2
:102E1000F9D58B4200D070BD824270BD6D004C0070
:102E2000EC4204D25C00EC4201D28B4270BD034CF8
:102E300030B4FDF721FE30BC70BD00BF1900130493
:102E400070B501252D050C001C4310D4EC4206D4AE
:102E5000AC420AD4994200D070BD904270BDE942A4
:102E600017D4EB4215D4994270BD894270BDEC4233
:102E700006D5AC42F9D58B4200D070BD824270BD00
:102E80006D004C00EC4204D25C00EC4201D28B425B
:102E900070BD034C30B4FDF7EFFD30BC70BD00BF1A
:102EA000190016040000000000000000002F0000C0
:102EB00000000700070000147F147F1400242A7FFD
:102EC0002A1200626408132300364955225000007C
:102ED0000503000000001C224100000041221C00EC
:102EE0000014083E08140008083E0808000000A06E
:102EF000600000080808080800006060000000206A
:102F000010080402003E5149453E0000427F400047
:102F1000004261514946002141454B3100181412CD
:102F20007F10002745454539003C4A49493000019A
:102F30007109050300364949493600064949291EE9
:102F4000000036360000000056360000000814224B
:102F5000410000141414141400004122140800024B
:102F60000151090600324959513E007C1211127C70
:102F7000007F49494936003E41414122007F41419D
:102F8000221C007F49494941007F09090901003E8F
:102F90004149497A007F0808087F0000417F4100CD
:102FA000002040413F01007F08142241007F404043
:102FB0004040007F020C027F007F0408107F003E2B
:102FC0004141413E007F09090906003E4151215E11
:102FD000007F091929460046494949310001017F0E
:102FE0000101003F4040403F001F2040201F003FA4
:102FF0004038403F00631408146300070870080756
:1030000000615149454300007F41410000552A5568
:103010002A55000041417F000004020102040040E3
:103020004040404000000102040000205454547805
:10303000007F484444380038444444200038444425
:10304000487F00385454541800087E0901020018C3
:10305000A4A4A47C007F080404780000447D400000
:10306000004080847D00007F102844000000417FE4
:103070004000007C04180478007C080404780038C0
:103080004444443800FC242424180018242418FC48
:10309000007C0804040800485454542000043F44B1
:1030A0004020003C4040207C001C2040201C003C74
:1030B0004030403C004428102844001CA0A0A07CC4
:1030C000004464544C4414141414141400000000FC
:1030D00000000000000000000000FC0000000000F4
:1030E00002000000000C020C0200000000000000C2
:1030F00090D0BCD0BC900003000300001824FE4414
:103100008C000302070201001824D8B04C80000391
:1031100000010201C038E438E000010202010202AD
:10312000080600000000000000000000000000F899
:103130000402000000010204000204F80000000480
:10314000020100009060F8609000000001000000A3
:103150002020FC20200000000100000000000000F2
:1031600000000806000000002020202020000000B1
:10317000000000000000000000000002000000004D
:103180000080601C0200040300000000F804040436
:10319000F8000102020201000008FC000000000229
:1031A00003020000188444241800030202020200F3
:1031B00008042424D80001020202010040B088FC67
:1031C00080000000000302003C242424C40001020B
:1031D00002020100F824242CC000010202020100B6
:1031E0000C04E41C0400000003000000D824242484
:1031F000D80001020202010038444444F8000003F0
:1032000002020100000010000000000002000000A7
:103210000000200000000000060000000020508890
:1032200004020000000001029090909090000000C5
:10323000000000000002048850200002010000008D
:103240001804C4241800000002000000F804E494EC
:10325000F80001020202020000E09CF0800002037C
:103260000000030204FC2424D8000203020201002F
:10327000F80404040C0001020202010004FC04042E
:10328000F80002030202010004FC24740C00020393
:103290000202030004FC24740C000203020000007C
:1032A000F0080444CC4000010202010004FC20208C
:1032B000FC040203000003020404FC0404000202F4
:1032C00003020200000404FC0404060404030000DA
:1032D00004FC24D00C0402030200030204FC0400DA
:1032E0000000020302020203FC3CC03CFC0003009D
:1032F0000300030004FC30C4FC04020302000300CA
:10330000F8040404F80001020202010004FC242471
:103310001800020302000000F8848404F80001028F
:103320000207050004FC2464980002030200030263
:10333000182424448C000302020201000C04FC0443
:103340000C0000020302000004FC0000FC04000169
:1033500002020100047C80E01C0400000300000065
:103360001CE03CE01C00000300030000049C609C87
:103370000400020300030200041CE01C040000021D
:10338000030200000C84641C040002030202030018
:103390000000FE020200000007040400000E30C01E
:1033A0000000000000010200000202FE0000000414
:1033B00004070000000402040000000000000000F8
:1033C00000000000000008080808080800000200CB
:1033D00000000000000000000040A0A0C0000001AC
:1033E0000202030204FC2020C000000302020100CC
:1033F00000C02020600000010202020000C0202462
:10340000FC0000010202030200C0A0A0C0000001F5
:10341000020202000020F824240400020302020039
:103420000040A0A0602000070A0A0A0404FC202033
:10343000C0000203020003020020E40000000002BA
:1034400003020000000020E4000008080807000054
:1034500004FC80E020200203020003020404FC00BC
:103460000000020203020200E020E020C00003008E
:103470000300030020E02020C0000203020003023A
:1034800000C02020C00000010202010020E0202036
:10349000C000080F0A02010000C02020E000000167
:1034A000020A0F0820E04020200002030200000072
:1034B0000060A0A020000002020203000020F8200B
:1034C000000000000102020020E00020E0000001F6
:1034D0000202030220E020806020000003010000BF
:1034E0006080E080600000030003000020608060D6
:1034F000200002030003020020E020806020080872
:10350000070100000020A06020000002030202006A
:10351000000020DE0200000000070400000000FFA1
:1035200000000000000F00000002DE200000000488
:103530000700000002010204040200000000000075
:10354000000000000000000000000000000000007B
:10355000000000F800000000000000333000000010
:1035600000100C06100C0600000000000000000017
:1035700040C07840C0784000043F04043F04040089
:10358000007088FC08300000001820FF211E000099
:10359000F008F000E018000000211C031E211E00AE
:1035A00000F00888700000001E2123241927211034
:1035B00010160E00000000000000000000000000D7
:1035C000000000E01804020000000007182040007E
:1035D00000020418E000000000402018070000006E
:1035E000404080F0804040000202010F01020200D2
:1035F000000000F0000000000101011F01010100B6
:10360000000000000000000080B07000000000001A
:1036100000000000000000000001010101010101A3
:10362000000000000000000000303000000000003A
:10363000000000008060180400601806010000000F
:1036400000E010080810E000000F102020100F000C
:10365000001010F8000000000020203F2020000093
:1036600000700808088870000030282422213000EB
:1036700000300888884830000018202020110E00F3
:103680000000C02010F8000000070424243F24009C
:1036900000F80888880808000019212020110E0071
:1036A00000E0108888180000000F112020110E0083
:1036B00000380808C83808000000003F000000007B
:1036C0000070880808887000001C222121221C003C
:1036D00000E010080810E0000000312222110F0065
:1036E000000000C0C00000000000003030000000FA
:1036F000000000800000000000008060000000006A
:103700000000804020100800000102040810200082
:1037100040404040404040000404040404040400CD
:103720000008102040800000002010080402010062
:10373000007048080808F000000000303601000062
:10374000C030C828E810E0000718272423140B0015
:103750000000C038E0000000203C2302022738208F
:1037600008F8888888700000203F202020110E0073
:10377000C03008080808380007182020201008006A
:1037800008F808080810E000203F202020100F0053
:1037900008F88888E8081000203F2020232018001F
:1037A00008F88888E8081000203F20000300000087
:1037B000C03008080838000007182020221E020028
:1037C00008F808000008F808203F210101213F20E7
:1037D000000808F8080800000020203F2020000012
:1037E00000000808F8080800C08080807F00000002
:1037F00008F888C028180800203F2001263820003B
:1038000008F8080000000000203F202020203000A1
:1038100008F8F800F8F80800203F003F003F2000BB
:1038200008F830C00008F808203F200007183F00C3
:10383000E01008080810E0000F10202020100F00F2
:1038400008F808080808F000203F210101010000E5
:10385000E01008080810E0000F18242438504F002A
:1038600008F8888888887000203F2000030C3020EA
:1038700000708808080838000038202121221C0028
:10388000180808F8080818000000203F2000000071
:1038900008F808000008F808001F202020201F005A
:1038A0000878880000C83808000007380E010000BA
:1038B000F80800F80008F800033C0700073C030084
:1038C000081868808068180820302C03032C3020EA
:1038D0000838C800C83808000000203F2000000059
:1038E00010080808C83808002038262120201800B1
:1038F000000000FE020202000000007F4040400085
:10390000000C30C000000000000000010638C000BC
:1039100000020202FE000000004040407F00000064
:103920000000040202020400000000000000000089
:103930000000000000000000808080808080808087
:10394000000202040000000000000000000000006F
:1039500000008080808000000019242222223F2065
:1039600008F8008080000000003F112020110E00A8
:103970000000008080800000000E11202020110037
:10398000000000808088F800000E112020103F20E9
:103990000000808080800000001F2222222213006D
:1039A000008080F0888888180020203F20200000B8
:1039B0000000808080808000006B9494949360006D
:1039C00008F8008080800000203F210000203F2078
:1039D00000809898000000000020203F2020000078
:1039E000000000809898000000C08080807F000068
:1039F00008F8000080808000203F24022D30200045
:103A0000000808F8000000000020203F20200000EF
:103A10008080808080808000203F20003F20003F09
:103A20008080008080800000203F210000203F2017
:103A30000000808080800000001F202020201F00C8
:103A4000808000808000000080FFA12020110E00F7
:103A50000000008080808000000E112020A0FF80E8
:103A6000808080008080800020203F212000010095
:103A700000008080808080000033242424241900EA
:103A8000008080E0808000000000001F20200000F7
:103A90008080000000808000001F202020103F2038
:103AA000808080000080808000010E3008060100C8
:103AB00080800080008080800F300C030C300F006D
:103AC00000808000808080000020312E0E31200098
:103AD000808080000080808080818E7018060100C8
:103AE00000808080808080000021302C22213000E6
:103AF00000000000807C020200000000003F404007
:103B000000000000FF00000000000000FF000000B7
:103B10000002027C800000000040403F00000000E6
:103B20000006010102020404000000000000000081
:103B30000000000000000000000000000000000085
:103B40000000000000000000000000000000000075
:103B5000000000000000000000F0F0F00000000095
:103B60000000000000017F010000000000000000D4
:103B7000001C1C1C0000000000008060301C8C60D9
:103B8000301C0C00000000000000000000000000DD
:103B9000000000000000000000000000000000E045
:103BA0000000000000E000000086E69F8686868612
:103BB000E69F860000011F01010101011F010100B4
:103BC000000080C06020F820E0C000000000030773
:103BD0000C18FF70E18100000000070F10107F102B
:103BE0000F0700008060206080000000E0200000DF
:103BF0000F3020309F70DC371030C0000000100EF6
:103C000003000718101807000000C02020E0C000C3
:103C10000000000080E01F38E88703C43C04000077
:103C2000070F1810100B070D1010080000808C4CA7
:103C3000380000000000000000000000000000004C
:103C40000000000000000000000000000000000074
:103C500000000000000080E03008040000000000C8
:103C600000FEFF0100000000000000000000030F44
:103C70001820400000040830E08000000000000030
:103C80000000000001FFFE000000000000402018BE
:103C90000F03000000000000000000000000C00052
:103CA00000000000004266663C18FF183C66664251
:103CB0000000000000000300000000000000000001
:103CC0000000800000000000001010101010FF1015
:103CD00010101010000000000000030000000000A1
:103CE00000000000000000000000000000000000D4
:103CF000000000000000000000808C4C3800000034
:103D000000000000000000000000000000000000B3
:103D10000010101010101010101010000000000003
:103D20000000000000000000000000000000000093
:103D30000000000000000000000000000000000083
:103D400000001C1C1C00000000000000000000001F
:103D500000000000E0380C000000000080701C0330
:103D6000000000000060380E0100000000000000AC
:103D7000000080C060202060C080000000FEFF01C5
:103D80000000000001FFFE000001070E18101018CF
:103D90000E0701000000808080C0E00000000000ED
:103DA0000000000000FFFF000000000000001010F5
:103DB000101F1F10101000000080402020202060E5
:103DC000C080000000030300804020381F0700006F
:103DD000001C1A1918181818181F00000080C0209D
:103DE000202060C080000000000303001010182F86
:103DF000E780000000070F10101010180F070000D8
:103E0000000000000000C0E0F000000000C0B0882A
:103E1000868180FFFF808000000000000010101FDE
:103E20001F1010000000E0606060606060600000D3
:103E300000003F1008080818F0E0000000070B1011
:103E40001010101C0F030000000080C04020202034
:103E5000E0C0000000FCFF211008080818F0E00096
:103E60000001070C18101010080F03000000C0E03C
:103E70006060606060E06000000003000000E01827
:103E80000700000000000000001F1F0000000000ED
:103E90000080C0602020202060C080000087EF2CC0
:103EA0001818303068CF830000070F08101010106A
:103EB000180F07000000C0C020202020C080000094
:103EC000001F3F604040402010FFFE0000000C1C1F
:103ED000101010080F030000000000000000000098
:103EE0000000000000000000000E0E0E00000000A8
:103EF00000000000001C1C1C00000000000000006E
:103F0000000000000000000000000000000C0C0099
:103F10000000000000000000005838000000000011
:103F20000000000000000080402010000000102869
:103F300044820100000000000000000000000102B7
:103F40000408100000000000000000000000000055
:103F50000084848484848484848484000000000039
:103F60000000000000000000000010204080000061
:103F70000000000000000000000001824428100042
:103F800000001008040201000000000000C0202012
:103F90001010101030E0C0000003030000F0100803
:103FA0000C070300000000001C1C1C0000000000A7
:103FB000000000C0406020202040C00000FCFF0145
:103FC000F00E03C1FE03807F0001070E08111110DF
:103FD000110904020000000080E0E0000000000081
:103FE0000000807C4340477FF880000010181F10BD
:103FF00000000000131F1C1020E0E02020202060A3
:10400000C080000000FFFF10101010182FE7800084
:10401000101F1F1010101010180F0700000080C094
:10402000402020202060E00000FCFF010000000094
:10403000000001000001070E181010100804030012
:1040400020E0E02020202040C080000000FFFF0092
:104050000000000001FFFE00101F1F1010101808C4
:104060000E07010020E0E0202020202020608000BA
:1040700000FFFF101010107C00000000101F1F1028
:10408000101010101018060020E0E0202020202042
:104090006060800000FFFF101010107C0000010025
:1040A000101F1F100000000000000000000080C072
:1040B0006020202040E0000000FCFF0100004040A4
:1040C000C0C140400001070E181010100F0F000073
:1040D00020E0E0200000000020E0E02000FFFF10D2
:1040E0001010101010FFFF00101F1F100000000024
:1040F000101F1F100000202020E0E02020200000E2
:104100000000000000FFFF00000000000000101091
:10411000101F1F101010000000000000202020E0E1
:10412000E020202000000000000000FFFF00000051
:104130000060E0808080C07F3F00000020E0E02041
:10414000000020A06020200000FFFF30187CE3C0AA
:1041500000000000101F1F10000001131F1C18108A
:1041600020E0E020000000000000000000FFFF0051
:104170000000000000000000101F1F1010101010A1
:104180001018060020E0E0E000000000E0E0E02081
:1041900000FF013FFEC0E01E01FFFF00101F1000E6
:1041A000031F0300101F1F1020E0E0C000000000EC
:1041B0000020E02000FF0003071C78E08000FF00E3
:1041C000101F100000000000030F1F00000080C03F
:1041D00060202060C080000000FEFF0100000000A1
:1041E00000FFFE000001070E181010180C07010058
:1041F00020E0E0202020202060C0800000FFFF2081
:1042000020202020301F0F00101F1F100000000072
:1042100000000000000080C060202060C08000001E
:1042200000FEFF010000000000FFFE000001070E7D
:104230001111133C7C67210020E0E0202020202089
:1042400060C0800000FFFF101030F0D0080F0700A2
:10425000101F1F10000000030F1C10100080C06012
:10426000202020204040E00000070F0C18183030BC
:1042700060E08100001F0C0810101010180F0700DC
:104280008060202020E0E0202020608001000000ED
:1042900000FFFF000000000100000000101F1F10C1
:1042A0000000000020E0E020000000000020E020EE
:1042B00000FFFF00000000000000FF0000070F18D3
:1042C00010101010100807002060E0E0200000002F
:1042D00020E060200000077FF88000807C03000061
:1042E00000000000071F1C070000000020E0E02085
:1042F00000E0E0200020E0200007FFF8E01FFFFCC6
:10430000E01F00000000031F0300011F0300000066
:10431000002060E0A0000020E0602000000000031A
:104320008F7CF8C6010000000010181E1300011752
:104330001F1810002060E0E02000000020E0602056
:10434000000001073EF8E018070000000000001020
:10435000101F1F101000000000806020202020A0EF
:10436000E0E0200000000000C0F03E0F030000006D
:1043700000101C1F1710101010180600000000007D
:1043800000FC0404040404000000000000FF00001E
:104390000000000000000000007F4040404040005E
:1043A000000010E00000000000000000000000001D
:1043B000031C6080000000000000000000000003FB
:1043C0000C70800000000404040404FC00000000E1
:1043D00000000000000000FF00000000000040405E
:1043E0004040407F0000000000000010080C040C5A
:1043F00008100000000000000000000000000000A5
:1044000000000000000000000000000000000000AC
:10441000000000000000000000000000000000009C
:10442000000000008080808080808080808080808C
:104430000000000404080800000000000000000064
:10444000000000000000000000000000000000006C
:10445000000000000000000000000000000000005C
:10446000000098D844642424FCF80000000F1F18B2
:10447000101010081F1F10180020E0F000000000AE
:10448000000000000000FFFF180804040CF8F00012
:1044900000001F0F18101010180F0300000000007C
:1044A000000000000000000000E0F8180404043CD4
:1044B0003800000000030F0C101010100806000058
:1044C0000000000000000020E0F0000000E0F81C08
:1044D00004040408FFFF000000030F181010100868
:1044E0001F0F080000000000000000000000000096
:1044F0000000E0F8484444444C7870000000030F8A
:104500000C181010100804000000000080C060208B
:1045100020E0C00000040404FFFF040404040000C1
:10452000000010101F1F10101000000000000000FD
:104530000000000000000000000070F88C04048CF3
:10454000F874040C007076CF8D8D8D89C87870005A
:104550000020E0F000000000000000000000FFFF6D
:1045600008040404FCF8000000101F1F10000010D5
:104570001F1F10000000000000606000000000002D
:104580000000040404FCFC00000000000000101007
:10459000101F1F101010000000000000000000603D
:1045A0006000000000000000040404FCFC000000A7
:1045B0000000C0C08080C07F3F0000000020E0F00D
:1045C00000000000000000000000FFFF80C0F41C9D
:1045D0000404000000101F1F1100031F1C10100016
:1045E0000000202020E0F00000000000000000009B
:1045F00000FFFF000000000000001010101F1F103F
:10460000101000000000000000000000000000008A
:1046100004FCFC0804FCFC0804FCFC00101F1F1038
:10462000001F1F10001F1F100000000000000000EE
:10463000000000000004FCFC08080404FCF8000072
:1046400000101F1F100000101F1F100000000000AE
:10465000000000000000000000E0F0180C04040C52
:1046600018F0E00000030F0C101010100C0F0300E6
:104670000000000000000000000000000004FCFC3E
:10468000080404040CF8F0000080FFFF889010106C
:104690001C0F0300000000000000000000000000EC
:1046A00000E0F81C04040408F8FC000000030F18E4
:1046B00010109088FFFF8000000000000000000044
:1046C00000000000040404FCFC100804040C0C00AE
:1046D0001010101F1F10101000000000000000003C
:1046E000000000000000000000003078CCC484848A
:1046F000840C1C0000001E1810101011190F060069
:104700000000000000C000000000000000040404DD
:10471000FFFF040404000000000000000F1F101041
:10472000100C00000000000000000000000000006D
:104730000004FCFE00000004FCFE000000000F1F4F
:10474000181010081F0F08000000000000000000F3
:104750000000000000040C3CFCC40000C43C0C043D
:1047600000000000010F1E0E01000000000000000C
:104770000000000000000000043CFCC400E47CFCDD
:1047800084807C040000071F070000071F0700004B
:104790000000000000000000000000000004041CF5
:1047A0007CE4C0341C0404000010101C1601131F0C
:1047B0001C181000000000000000000000000000B5
:1047C00000040C3CFCC400C43C0404000000C08095
:1047D000C1370E01000000000000000000000000D2
:1047E0000000000000001C0404C4F47C1C04000051
:1047F0000000101C1F17111010180E000000000000
:10480000000000F80C04000000000000001028EF79
:1048100000000000000000000000003F60400000B9
:10482000000000000000FF00000000000000000089
:104830000000FF0000000000000000000000FF007A
:10484000000000000000040CF80000000000000060
:1048500000000000EF281000000000000000406091
:104860003F000000000000000018060202040810CB
:1048700020203008000000000000000000000000C0
:104880000000000000000000000000000800000020
:10489000800C00002001000008000002020000005F
:1048A0000200000088080000010000000000000075
:1048B00000000000040000001800000000300000AC
:1048C0000800000018000000003000000000000098
:1048D000F048000000002020080000002001000037
:1048E000F848000008002020E00700004801000010
:0848F000280032000100000065
:04000005000000C136
:00000001FF
